{
  "address": "0xCf7Ed3AccA5a467e9e704C703E8D87F634fB0Fc9",
  "abi": [
    {
      "inputs": [
        {
          "internalType": "address",
          "name": "vrfCoordinatorV2",
          "type": "address"
        },
        {
          "internalType": "uint256",
          "name": "entranceFee",
          "type": "uint256"
        },
        {
          "internalType": "bytes32",
          "name": "gasLane",
          "type": "bytes32"
        },
        {
          "internalType": "uint64",
          "name": "subscriptionId",
          "type": "uint64"
        },
        {
          "internalType": "uint32",
          "name": "callbackGasLimit",
          "type": "uint32"
        },
        {
          "internalType": "uint256",
          "name": "interval",
          "type": "uint256"
        }
      ],
      "stateMutability": "nonpayable",
      "type": "constructor"
    },
    {
      "inputs": [
        {
          "internalType": "address",
          "name": "have",
          "type": "address"
        },
        {
          "internalType": "address",
          "name": "want",
          "type": "address"
        }
      ],
      "name": "OnlyCoordinatorCanFulfill",
      "type": "error"
    },
    {
      "inputs": [],
      "name": "Raffle__NOTOpen",
      "type": "error"
    },
    {
      "inputs": [],
      "name": "Raffle__NotEnoughETHEntered",
      "type": "error"
    },
    {
      "inputs": [],
      "name": "Raffle__TransferFailed",
      "type": "error"
    },
    {
      "inputs": [
        {
          "internalType": "uint256",
          "name": "currentBalance",
          "type": "uint256"
        },
        {
          "internalType": "uint256",
          "name": "numPlayers",
          "type": "uint256"
        },
        {
          "internalType": "uint256",
          "name": "RaffleState",
          "type": "uint256"
        }
      ],
      "name": "Raffle__UpkeepNotNeeded",
      "type": "error"
    },
    {
      "anonymous": false,
      "inputs": [
        {
          "indexed": true,
          "internalType": "address",
          "name": "player",
          "type": "address"
        }
      ],
      "name": "RaffleEnter",
      "type": "event"
    },
    {
      "anonymous": false,
      "inputs": [
        {
          "indexed": true,
          "internalType": "uint256",
          "name": "requestId",
          "type": "uint256"
        }
      ],
      "name": "RequestedRaffleWinner",
      "type": "event"
    },
    {
      "anonymous": false,
      "inputs": [
        {
          "indexed": true,
          "internalType": "address",
          "name": "winner",
          "type": "address"
        }
      ],
      "name": "WinnerPicked",
      "type": "event"
    },
    {
      "inputs": [
        {
          "internalType": "bytes",
          "name": "",
          "type": "bytes"
        }
      ],
      "name": "checkUpkeep",
      "outputs": [
        {
          "internalType": "bool",
          "name": "upkeepNeeded",
          "type": "bool"
        },
        {
          "internalType": "bytes",
          "name": "",
          "type": "bytes"
        }
      ],
      "stateMutability": "nonpayable",
      "type": "function"
    },
    {
      "inputs": [],
      "name": "enterRaffle",
      "outputs": [],
      "stateMutability": "payable",
      "type": "function"
    },
    {
      "inputs": [],
      "name": "getEntranceFee",
      "outputs": [
        {
          "internalType": "uint256",
          "name": "",
          "type": "uint256"
        }
      ],
      "stateMutability": "view",
      "type": "function"
    },
    {
      "inputs": [],
      "name": "getInterval",
      "outputs": [
        {
          "internalType": "uint256",
          "name": "",
          "type": "uint256"
        }
      ],
      "stateMutability": "view",
      "type": "function"
    },
    {
      "inputs": [],
      "name": "getLatestTimeStamp",
      "outputs": [
        {
          "internalType": "uint256",
          "name": "",
          "type": "uint256"
        }
      ],
      "stateMutability": "view",
      "type": "function"
    },
    {
      "inputs": [],
      "name": "getNumWords",
      "outputs": [
        {
          "internalType": "uint256",
          "name": "",
          "type": "uint256"
        }
      ],
      "stateMutability": "pure",
      "type": "function"
    },
    {
      "inputs": [],
      "name": "getNumberOfPlayers",
      "outputs": [
        {
          "internalType": "uint256",
          "name": "",
          "type": "uint256"
        }
      ],
      "stateMutability": "view",
      "type": "function"
    },
    {
      "inputs": [
        {
          "internalType": "uint256",
          "name": "index",
          "type": "uint256"
        }
      ],
      "name": "getPlayer",
      "outputs": [
        {
          "internalType": "address",
          "name": "",
          "type": "address"
        }
      ],
      "stateMutability": "view",
      "type": "function"
    },
    {
      "inputs": [],
      "name": "getRaffleState",
      "outputs": [
        {
          "internalType": "enum Raffle.RaffleState",
          "name": "",
          "type": "uint8"
        }
      ],
      "stateMutability": "view",
      "type": "function"
    },
    {
      "inputs": [],
      "name": "getRecentWinner",
      "outputs": [
        {
          "internalType": "address",
          "name": "",
          "type": "address"
        }
      ],
      "stateMutability": "view",
      "type": "function"
    },
    {
      "inputs": [],
      "name": "getRequestConfirmations",
      "outputs": [
        {
          "internalType": "uint256",
          "name": "",
          "type": "uint256"
        }
      ],
      "stateMutability": "pure",
      "type": "function"
    },
    {
      "inputs": [
        {
          "internalType": "bytes",
          "name": "",
          "type": "bytes"
        }
      ],
      "name": "performUpkeep",
      "outputs": [],
      "stateMutability": "nonpayable",
      "type": "function"
    },
    {
      "inputs": [
        {
          "internalType": "uint256",
          "name": "requestId",
          "type": "uint256"
        },
        {
          "internalType": "uint256[]",
          "name": "randomWords",
          "type": "uint256[]"
        }
      ],
      "name": "rawFulfillRandomWords",
      "outputs": [],
      "stateMutability": "nonpayable",
      "type": "function"
    }
  ],
  "transactionHash": "0x5095922e0de6c8afe812cf20313004b5966f145cec8ebeedc3b0ce00acbf619f",
  "args": [
    "0x5FbDB2315678afecb367f032d93F642f64180aa3",
    "100000000000000000",
    "0xd89b2bf150e3b9e13446986e571fb9cab24b13cea0a43ea20a6049a85cc807cc",
    "1",
    "500000",
    "30"
  ],
  "numDeployments": 1,
  "solcInputHash": "ed026a0f1d3dfad62a5a2230d0219950",
  "bytecode": "0x6101606040523480156200001257600080fd5b506040516200185c3803806200185c8339818101604052810190620000389190620001ad565b858073ffffffffffffffffffffffffffffffffffffffff1660808173ffffffffffffffffffffffffffffffffffffffff1660601b81525050508460a081815250508573ffffffffffffffffffffffffffffffffffffffff1660c08173ffffffffffffffffffffffffffffffffffffffff1660601b815250508360e081815250508267ffffffffffffffff166101008167ffffffffffffffff1660c01b815250508163ffffffff166101208163ffffffff1660e01b815250506000600260006101000a81548160ff02191690836001811115620001195762000118620002b5565b5b0217905550426001819055508061014081815250505050505050506200036b565b6000815190506200014b81620002e9565b92915050565b600081519050620001628162000303565b92915050565b60008151905062000179816200031d565b92915050565b600081519050620001908162000337565b92915050565b600081519050620001a78162000351565b92915050565b60008060008060008060c08789031215620001cd57620001cc620002e4565b5b6000620001dd89828a016200013a565b9650506020620001f089828a0162000168565b95505060406200020389828a0162000151565b94505060606200021689828a0162000196565b93505060806200022989828a016200017f565b92505060a06200023c89828a0162000168565b9150509295509295509295565b6000620002568262000267565b9050919050565b6000819050919050565b600073ffffffffffffffffffffffffffffffffffffffff82169050919050565b6000819050919050565b600063ffffffff82169050919050565b600067ffffffffffffffff82169050919050565b7f4e487b7100000000000000000000000000000000000000000000000000000000600052602160045260246000fd5b600080fd5b620002f48162000249565b81146200030057600080fd5b50565b6200030e816200025d565b81146200031a57600080fd5b50565b620003288162000287565b81146200033457600080fd5b50565b620003428162000291565b81146200034e57600080fd5b50565b6200035c81620002a1565b81146200036857600080fd5b50565b60805160601c60a05160c05160601c60e0516101005160c01c6101205160e01c61014051611475620003e7600039600081816107f70152610865015260006106a60152600061068301526000610662015260006106260152600081816102fa01526103f7015260008181610337015261038b01526114756000f3fe6080604052600436106100c25760003560e01c8063473f1ddc1161007f5780636e04ff0d116100595780636e04ff0d1461022557806391ad27b414610263578063e55ae4e81461028e578063fd6673f5146102cb576100c2565b8063473f1ddc146101a457806353a2c19a146101cf5780635f1b0fd8146101fa576100c2565b806309bc33a7146100c7578063115cbaf5146100f25780631fe543e31461011d5780632cfcc53914610146578063320229eb146101505780634585e33b1461017b575b600080fd5b3480156100d357600080fd5b506100dc6102f6565b6040516100e9919061107b565b60405180910390f35b3480156100fe57600080fd5b5061010761031e565b6040516101149190611060565b60405180910390f35b34801561012957600080fd5b50610144600480360381019061013f9190610e54565b610335565b005b61014e6103f5565b005b34801561015c57600080fd5b50610165610564565b604051610172919061107b565b60405180910390f35b34801561018757600080fd5b506101a2600480360381019061019d9190610d64565b61056e565b005b3480156101b057600080fd5b506101b961076e565b6040516101c69190610f99565b60405180910390f35b3480156101db57600080fd5b506101e4610798565b6040516101f1919061107b565b60405180910390f35b34801561020657600080fd5b5061020f6107a7565b60405161021c919061107b565b60405180910390f35b34801561023157600080fd5b5061024c60048036038101906102479190610db1565b6107b4565b60405161025a929190610fdd565b60405180910390f35b34801561026f57600080fd5b50610278610861565b604051610285919061107b565b60405180910390f35b34801561029a57600080fd5b506102b560048036038101906102b09190610dfa565b610889565b6040516102c29190610f99565b60405180910390f35b3480156102d757600080fd5b506102e06108d0565b6040516102ed919061107b565b60405180910390f35b60007f0000000000000000000000000000000000000000000000000000000000000000905090565b6000600260009054906101000a900460ff16905090565b7f000000000000000000000000000000000000000000000000000000000000000073ffffffffffffffffffffffffffffffffffffffff163373ffffffffffffffffffffffffffffffffffffffff16146103e757337f00000000000000000000000000000000000000000000000000000000000000006040517f1cf993f40000000000000000000000000000000000000000000000000000000081526004016103de929190610fb4565b60405180910390fd5b6103f182826108dc565b5050565b7f000000000000000000000000000000000000000000000000000000000000000034101561044f576040517fbd4e069500000000000000000000000000000000000000000000000000000000815260040160405180910390fd5b6000600181111561046357610462611355565b5b600260009054906101000a900460ff16600181111561048557610484611355565b5b146104bc576040517f7459aab500000000000000000000000000000000000000000000000000000000815260040160405180910390fd5b6000339080600181540180825580915050600190039060005260206000200160009091909190916101000a81548173ffffffffffffffffffffffffffffffffffffffff021916908373ffffffffffffffffffffffffffffffffffffffff1602179055503373ffffffffffffffffffffffffffffffffffffffff167f0805e1d667bddb8a95f0f09880cf94f403fb596ce79928d9f29b74203ba284d460405160405180910390a2565b6000600154905090565b6000610588604051806020016040528060008152506107b4565b509050806105f75747600080549050600260009054906101000a900460ff1660018111156105b9576105b8611355565b5b6040517f584327aa0000000000000000000000000000000000000000000000000000000081526004016105ee93929190611096565b60405180910390fd5b6001600260006101000a81548160ff0219169083600181111561061d5761061c611355565b5b021790555060007f000000000000000000000000000000000000000000000000000000000000000073ffffffffffffffffffffffffffffffffffffffff16635d3b1d307f00000000000000000000000000000000000000000000000000000000000000007f000000000000000000000000000000000000000000000000000000000000000060037f000000000000000000000000000000000000000000000000000000000000000060016040518663ffffffff1660e01b81526004016106e795949392919061100d565b602060405180830381600087803b15801561070157600080fd5b505af1158015610715573d6000803e3d6000fd5b505050506040513d601f19601f820116820180604052508101906107399190610e27565b9050807fcd6e45c8998311cab7e9d4385596cac867e20a0587194b954fa3a731c93ce78b60405160405180910390a250505050565b6000600260019054906101000a900473ffffffffffffffffffffffffffffffffffffffff16905090565b6000600163ffffffff16905090565b6000600361ffff16905090565b600060606000600260009054906101000a900460ff1660018111156107dc576107db611355565b5b600060018111156107f0576107ef611355565b5b14905060007f0000000000000000000000000000000000000000000000000000000000000000600154426108249190611176565b119050600080600080549050119050600080471190508380156108445750825b801561084d5750805b80156108565750815b955050505050915091565b60007f0000000000000000000000000000000000000000000000000000000000000000905090565b600080828154811061089e5761089d611384565b5b9060005260206000200160009054906101000a900473ffffffffffffffffffffffffffffffffffffffff169050919050565b60008080549050905090565b60008080549050826000815181106108f7576108f6611384565b5b602002602001015161090991906112c6565b905060008082815481106109205761091f611384565b5b9060005260206000200160009054906101000a900473ffffffffffffffffffffffffffffffffffffffff16905080600260016101000a81548173ffffffffffffffffffffffffffffffffffffffff021916908373ffffffffffffffffffffffffffffffffffffffff16021790555060008173ffffffffffffffffffffffffffffffffffffffff16476040516109b490610f84565b60006040518083038185875af1925050503d80600081146109f1576040519150601f19603f3d011682016040523d82523d6000602084013e6109f6565b606091505b505090506000600260006101000a81548160ff02191690836001811115610a2057610a1f611355565b5b0217905550600067ffffffffffffffff811115610a4057610a3f6113b3565b5b604051908082528060200260200182016040528015610a6e5781602001602082028036833780820191505090505b5060009080519060200190610a84929190610b2f565b504260018190555080610ac3576040517fa1d04b3900000000000000000000000000000000000000000000000000000000815260040160405180910390fd5b600260019054906101000a900473ffffffffffffffffffffffffffffffffffffffff1673ffffffffffffffffffffffffffffffffffffffff167f5b690ec4a06fe979403046eaeea5b3ce38524683c3001f662c8b5a829632f7df60405160405180910390a25050505050565b828054828255906000526020600020908101928215610ba8579160200282015b82811115610ba75782518260006101000a81548173ffffffffffffffffffffffffffffffffffffffff021916908373ffffffffffffffffffffffffffffffffffffffff16021790555091602001919060010190610b4f565b5b509050610bb59190610bb9565b5090565b5b80821115610bd2576000816000905550600101610bba565b5090565b6000610be9610be4846110f2565b6110cd565b90508083825260208201905082856020860282011115610c0c57610c0b6113ec565b5b60005b85811015610c3c5781610c228882610d3a565b845260208401935060208301925050600181019050610c0f565b5050509392505050565b6000610c59610c548461111e565b6110cd565b905082815260208101848484011115610c7557610c746113f1565b5b610c80848285611253565b509392505050565b600082601f830112610c9d57610c9c6113e7565b5b8135610cad848260208601610bd6565b91505092915050565b60008083601f840112610ccc57610ccb6113e7565b5b8235905067ffffffffffffffff811115610ce957610ce86113e2565b5b602083019150836001820283011115610d0557610d046113ec565b5b9250929050565b600082601f830112610d2157610d206113e7565b5b8135610d31848260208601610c46565b91505092915050565b600081359050610d4981611428565b92915050565b600081519050610d5e81611428565b92915050565b60008060208385031215610d7b57610d7a6113fb565b5b600083013567ffffffffffffffff811115610d9957610d986113f6565b5b610da585828601610cb6565b92509250509250929050565b600060208284031215610dc757610dc66113fb565b5b600082013567ffffffffffffffff811115610de557610de46113f6565b5b610df184828501610d0c565b91505092915050565b600060208284031215610e1057610e0f6113fb565b5b6000610e1e84828501610d3a565b91505092915050565b600060208284031215610e3d57610e3c6113fb565b5b6000610e4b84828501610d4f565b91505092915050565b60008060408385031215610e6b57610e6a6113fb565b5b6000610e7985828601610d3a565b925050602083013567ffffffffffffffff811115610e9a57610e996113f6565b5b610ea685828601610c88565b9150509250929050565b610eb9816111aa565b82525050565b610ec8816111bc565b82525050565b610ed7816111c8565b82525050565b6000610ee88261114f565b610ef2818561115a565b9350610f02818560208601611262565b610f0b81611400565b840191505092915050565b610f1f81611241565b82525050565b6000610f3260008361116b565b9150610f3d82611411565b600082019050919050565b610f51816111e5565b82525050565b610f6081611213565b82525050565b610f6f8161121d565b82525050565b610f7e8161122d565b82525050565b6000610f8f82610f25565b9150819050919050565b6000602082019050610fae6000830184610eb0565b92915050565b6000604082019050610fc96000830185610eb0565b610fd66020830184610eb0565b9392505050565b6000604082019050610ff26000830185610ebf565b81810360208301526110048184610edd565b90509392505050565b600060a0820190506110226000830188610ece565b61102f6020830187610f75565b61103c6040830186610f48565b6110496060830185610f66565b6110566080830184610f66565b9695505050505050565b60006020820190506110756000830184610f16565b92915050565b60006020820190506110906000830184610f57565b92915050565b60006060820190506110ab6000830186610f57565b6110b86020830185610f57565b6110c56040830184610f57565b949350505050565b60006110d76110e8565b90506110e38282611295565b919050565b6000604051905090565b600067ffffffffffffffff82111561110d5761110c6113b3565b5b602082029050602081019050919050565b600067ffffffffffffffff821115611139576111386113b3565b5b61114282611400565b9050602081019050919050565b600081519050919050565b600082825260208201905092915050565b600081905092915050565b600061118182611213565b915061118c83611213565b92508282101561119f5761119e6112f7565b5b828203905092915050565b60006111b5826111f3565b9050919050565b60008115159050919050565b6000819050919050565b60008190506111e082611414565b919050565b600061ffff82169050919050565b600073ffffffffffffffffffffffffffffffffffffffff82169050919050565b6000819050919050565b600063ffffffff82169050919050565b600067ffffffffffffffff82169050919050565b600061124c826111d2565b9050919050565b82818337600083830152505050565b60005b83811015611280578082015181840152602081019050611265565b8381111561128f576000848401525b50505050565b61129e82611400565b810181811067ffffffffffffffff821117156112bd576112bc6113b3565b5b80604052505050565b60006112d182611213565b91506112dc83611213565b9250826112ec576112eb611326565b5b828206905092915050565b7f4e487b7100000000000000000000000000000000000000000000000000000000600052601160045260246000fd5b7f4e487b7100000000000000000000000000000000000000000000000000000000600052601260045260246000fd5b7f4e487b7100000000000000000000000000000000000000000000000000000000600052602160045260246000fd5b7f4e487b7100000000000000000000000000000000000000000000000000000000600052603260045260246000fd5b7f4e487b7100000000000000000000000000000000000000000000000000000000600052604160045260246000fd5b600080fd5b600080fd5b600080fd5b600080fd5b600080fd5b600080fd5b6000601f19601f8301169050919050565b50565b6002811061142557611424611355565b5b50565b61143181611213565b811461143c57600080fd5b5056fea2646970667358221220760431f60bc5a1098485f25afb714b9a0d54d270ae6f5d255f5bdb5c34a5f5f664736f6c63430008070033",
  "devdoc": {
    "kind": "dev",
    "methods": {},
    "version": 1
  },
  "userdoc": {
    "kind": "user",
    "methods": {},
    "version": 1
  },
  "storageLayout": {
    "storage": [
      {
        "astId": 870,
        "contract": "contracts/Raffle.sol:Raffle",
        "label": "s_players",
        "offset": 0,
        "slot": "0",
        "type": "t_array(t_address_payable)dyn_storage"
      },
      {
        "astId": 887,
        "contract": "contracts/Raffle.sol:Raffle",
        "label": "s_lastTimeStamp",
        "offset": 0,
        "slot": "1",
        "type": "t_uint256"
      },
      {
        "astId": 892,
        "contract": "contracts/Raffle.sol:Raffle",
        "label": "s_raffleState",
        "offset": 0,
        "slot": "2",
        "type": "t_enum(RaffleState)865"
      },
      {
        "astId": 894,
        "contract": "contracts/Raffle.sol:Raffle",
        "label": "s_recentWinner",
        "offset": 1,
        "slot": "2",
        "type": "t_address"
      }
    ],
    "types": {
      "t_address": {
        "encoding": "inplace",
        "label": "address",
        "numberOfBytes": "20"
      },
      "t_address_payable": {
        "encoding": "inplace",
        "label": "address payable",
        "numberOfBytes": "20"
      },
      "t_array(t_address_payable)dyn_storage": {
        "base": "t_address_payable",
        "encoding": "dynamic_array",
        "label": "address payable[]",
        "numberOfBytes": "32"
      },
      "t_enum(RaffleState)865": {
        "encoding": "inplace",
        "label": "enum Raffle.RaffleState",
        "numberOfBytes": "1"
      },
      "t_uint256": {
        "encoding": "inplace",
        "label": "uint256",
        "numberOfBytes": "32"
      }
    }
  }
}